:100000000C942A000C9447000C9447000C94470071
:100010000C9447000C9447000C9447000C94470044
:100020000C9447000C9447000C9447000C94470034
:100030000C9447000C9447000C9447000C94470024
:100040000C9447000C9447000C9447000C94470014
:100050000C94470011241FBECFE5D8E0DEBFCDBF12
:1000600010E0A0E6B0E0E0E2F4E002C005900D92FE
:10007000A037B107D9F720E0A0E7B0E001C01D929A
:10008000A237B207E1F70E94A5010C940E020C946E
:10009000000098B39E7F98BBEFECF7E03197F1F743
:1000A00000C0000098B3926098BBEFECF7E0319786
:1000B000F1F700C0000098B39F70282F207F922B8B
:1000C00098BBEFECF7E03197F1F700C0000098B370
:1000D0009D7F98BBEFECF7E03197F1F700C000008F
:1000E00098B3926098BBEFECF7E03197F1F700C05E
:1000F000000028B3F0E18F9FC0011124922F9F7060
:10010000892B88BB8FEC97E00197F1F700C00000C6
:1001100088B38D7F88BBEFECF7E03197F1F700C033
:10012000000008958FEF87BB8FE39CE90197F1F7FB
:1001300000C0000082E00E9449008FE39CE9019723
:10014000F1F700C0000088E20E9449008FE39CE9BB
:100150000197F1F700C000008CE00E9449008FE396
:100160009CE90197F1F700C0000081E00E9449007E
:100170008FE39CE90197F1F700C00000089598B360
:10018000916098BBEFECF7E03197F1F700C0000009
:1001900098B3926098BBEFECF7E03197F1F700C0AD
:1001A000000098B39F70282F207F922B98BBEFEC14
:1001B000F7E03197F1F700C0000098B39D7F98BB3E
:1001C000EFECF7E03197F1F700C0000098B39260D0
:1001D00098BBEFECF7E03197F1F700C0000028B3CF
:1001E000F0E18F9FC0011124922F9F70892B88BB53
:1001F0008FEC97E00197F1F700C0000088B38D7F86
:1002000088BBEFECF7E03197F1F700C000000895EC
:1002100081E00E9449008FE99FE00197F1F700C05B
:10022000000080E80E944900089580EF81BB8FEFB5
:1002300082BB82B38F7082BB000080B38F708093CB
:1002400070008F30B1F78FE39CE90197F1F700C0A0
:10025000000080B38F70809370008F30A1F39FEF08
:1002600029EF80E0915020408040E1F700C000007D
:1002700080B38F70809370008F3029F38FEE82BB34
:10028000000080B38F70809370008F3019F010924F
:10029000710027C08FED82BB000080B38F70809308
:1002A00070008F3021F081E0809371001AC08FEBD5
:1002B00082BB000080B38F70809370008F3021F07C
:1002C00082E0809371000DC08FE782BB000080B395
:1002D0008F70809370008F3009F4A7CF83E08093F4
:1002E0007100809170008E3059F4E0917100F0E05F
:1002F000EE0FFF1FEE0FFF1FE05AFF4F80810895A2
:100300008D3059F4E0917100F0E0EE0FFF1FEE0F19
:10031000FF1FE05AFF4F818108958B3059F4E0911F
:100320007100F0E0EE0FFF1FEE0FFF1FE05AFF4FCE
:1003300082810895E0917100F0E0EE0FFF1FEE0F53
:10034000FF1FE05AFF4F838108952FEF89E698E160
:10035000215080409040E1F700C000000E949200D0
:100360002FEF89E698E1215080409040E1F700C0EE
:10037000000084E50E94BF008FE39CE90197F1F73C
:1003800000C0000085E40E94BF008FE39CE9019754
:10039000F1F700C0000083E50E94BF008FE39CE9F5
:1003A0000197F1F700C0000084E50E94BF009FEFB5
:1003B00023ED80E3915020408040E1F700C0000031
:1003C0000E94080180E80E944900C0E00E941501D7
:1003D000D82F9FEF21EE84E0915020408040E1F73C
:1003E00000C00000CF5FC13121F480EC0E944900C1
:1003F00008C0C13230F00E94080180E80E94490024
:10040000C1E0D33639F40E94080180E80E94490017
:10041000C0E0DCCF8D2F0E94BF00D8CFF894FFCF73
:100420003738392F3435362A3132332D63303D2B6E
:00000001FF
